{
  "contractName": "GitNFT",
  "abi": [
    {
      "inputs": [
        {
          "internalType": "string",
          "name": "baseIPFSURI_",
          "type": "string"
        },
        {
          "internalType": "string",
          "name": "baseTokenURI_",
          "type": "string"
        },
        {
          "internalType": "bytes",
          "name": "contractCID_",
          "type": "bytes"
        }
      ],
      "stateMutability": "nonpayable",
      "type": "constructor"
    },
    {
      "anonymous": false,
      "inputs": [
        {
          "indexed": true,
          "internalType": "address",
          "name": "owner",
          "type": "address"
        },
        {
          "indexed": true,
          "internalType": "address",
          "name": "approved",
          "type": "address"
        },
        {
          "indexed": true,
          "internalType": "uint256",
          "name": "tokenId",
          "type": "uint256"
        }
      ],
      "name": "Approval",
      "type": "event"
    },
    {
      "anonymous": false,
      "inputs": [
        {
          "indexed": true,
          "internalType": "address",
          "name": "owner",
          "type": "address"
        },
        {
          "indexed": true,
          "internalType": "address",
          "name": "operator",
          "type": "address"
        },
        {
          "indexed": false,
          "internalType": "bool",
          "name": "approved",
          "type": "bool"
        }
      ],
      "name": "ApprovalForAll",
      "type": "event"
    },
    {
      "anonymous": false,
      "inputs": [
        {
          "indexed": false,
          "internalType": "address",
          "name": "userAddress",
          "type": "address"
        },
        {
          "indexed": false,
          "internalType": "address payable",
          "name": "relayerAddress",
          "type": "address"
        },
        {
          "indexed": false,
          "internalType": "bytes",
          "name": "functionSignature",
          "type": "bytes"
        }
      ],
      "name": "MetaTransactionExecuted",
      "type": "event"
    },
    {
      "anonymous": false,
      "inputs": [
        {
          "indexed": true,
          "internalType": "address",
          "name": "previousOwner",
          "type": "address"
        },
        {
          "indexed": true,
          "internalType": "address",
          "name": "newOwner",
          "type": "address"
        }
      ],
      "name": "OwnershipTransferred",
      "type": "event"
    },
    {
      "anonymous": false,
      "inputs": [
        {
          "indexed": false,
          "internalType": "address",
          "name": "account",
          "type": "address"
        }
      ],
      "name": "Paused",
      "type": "event"
    },
    {
      "anonymous": false,
      "inputs": [
        {
          "indexed": true,
          "internalType": "bytes32",
          "name": "role",
          "type": "bytes32"
        },
        {
          "indexed": true,
          "internalType": "bytes32",
          "name": "previousAdminRole",
          "type": "bytes32"
        },
        {
          "indexed": true,
          "internalType": "bytes32",
          "name": "newAdminRole",
          "type": "bytes32"
        }
      ],
      "name": "RoleAdminChanged",
      "type": "event"
    },
    {
      "anonymous": false,
      "inputs": [
        {
          "indexed": true,
          "internalType": "bytes32",
          "name": "role",
          "type": "bytes32"
        },
        {
          "indexed": true,
          "internalType": "address",
          "name": "account",
          "type": "address"
        },
        {
          "indexed": true,
          "internalType": "address",
          "name": "sender",
          "type": "address"
        }
      ],
      "name": "RoleGranted",
      "type": "event"
    },
    {
      "anonymous": false,
      "inputs": [
        {
          "indexed": true,
          "internalType": "bytes32",
          "name": "role",
          "type": "bytes32"
        },
        {
          "indexed": true,
          "internalType": "address",
          "name": "account",
          "type": "address"
        },
        {
          "indexed": true,
          "internalType": "address",
          "name": "sender",
          "type": "address"
        }
      ],
      "name": "RoleRevoked",
      "type": "event"
    },
    {
      "anonymous": false,
      "inputs": [
        {
          "indexed": true,
          "internalType": "address",
          "name": "from",
          "type": "address"
        },
        {
          "indexed": true,
          "internalType": "address",
          "name": "to",
          "type": "address"
        },
        {
          "indexed": true,
          "internalType": "uint256",
          "name": "tokenId",
          "type": "uint256"
        }
      ],
      "name": "Transfer",
      "type": "event"
    },
    {
      "anonymous": false,
      "inputs": [
        {
          "indexed": false,
          "internalType": "address",
          "name": "account",
          "type": "address"
        }
      ],
      "name": "Unpaused",
      "type": "event"
    },
    {
      "inputs": [],
      "name": "DEFAULT_ADMIN_ROLE",
      "outputs": [
        {
          "internalType": "bytes32",
          "name": "",
          "type": "bytes32"
        }
      ],
      "stateMutability": "view",
      "type": "function",
      "constant": true
    },
    {
      "inputs": [],
      "name": "MINTER_ROLE",
      "outputs": [
        {
          "internalType": "bytes32",
          "name": "",
          "type": "bytes32"
        }
      ],
      "stateMutability": "view",
      "type": "function",
      "constant": true
    },
    {
      "inputs": [],
      "name": "OPERATOR_ROLE",
      "outputs": [
        {
          "internalType": "bytes32",
          "name": "",
          "type": "bytes32"
        }
      ],
      "stateMutability": "view",
      "type": "function",
      "constant": true
    },
    {
      "inputs": [
        {
          "internalType": "address",
          "name": "to",
          "type": "address"
        },
        {
          "internalType": "uint256",
          "name": "tokenId",
          "type": "uint256"
        }
      ],
      "name": "approve",
      "outputs": [],
      "stateMutability": "nonpayable",
      "type": "function"
    },
    {
      "inputs": [
        {
          "internalType": "address",
          "name": "owner",
          "type": "address"
        }
      ],
      "name": "balanceOf",
      "outputs": [
        {
          "internalType": "uint256",
          "name": "",
          "type": "uint256"
        }
      ],
      "stateMutability": "view",
      "type": "function",
      "constant": true
    },
    {
      "inputs": [
        {
          "internalType": "uint256",
          "name": "tokenId",
          "type": "uint256"
        }
      ],
      "name": "burn",
      "outputs": [],
      "stateMutability": "nonpayable",
      "type": "function"
    },
    {
      "inputs": [
        {
          "internalType": "uint256",
          "name": "tokenId",
          "type": "uint256"
        }
      ],
      "name": "getApproved",
      "outputs": [
        {
          "internalType": "address",
          "name": "",
          "type": "address"
        }
      ],
      "stateMutability": "view",
      "type": "function",
      "constant": true
    },
    {
      "inputs": [
        {
          "internalType": "bytes32",
          "name": "role",
          "type": "bytes32"
        }
      ],
      "name": "getRoleAdmin",
      "outputs": [
        {
          "internalType": "bytes32",
          "name": "",
          "type": "bytes32"
        }
      ],
      "stateMutability": "view",
      "type": "function",
      "constant": true
    },
    {
      "inputs": [
        {
          "internalType": "bytes32",
          "name": "role",
          "type": "bytes32"
        },
        {
          "internalType": "address",
          "name": "account",
          "type": "address"
        }
      ],
      "name": "grantRole",
      "outputs": [],
      "stateMutability": "nonpayable",
      "type": "function"
    },
    {
      "inputs": [
        {
          "internalType": "bytes32",
          "name": "role",
          "type": "bytes32"
        },
        {
          "internalType": "address",
          "name": "account",
          "type": "address"
        }
      ],
      "name": "hasRole",
      "outputs": [
        {
          "internalType": "bool",
          "name": "",
          "type": "bool"
        }
      ],
      "stateMutability": "view",
      "type": "function",
      "constant": true
    },
    {
      "inputs": [],
      "name": "name",
      "outputs": [
        {
          "internalType": "string",
          "name": "",
          "type": "string"
        }
      ],
      "stateMutability": "view",
      "type": "function",
      "constant": true
    },
    {
      "inputs": [],
      "name": "owner",
      "outputs": [
        {
          "internalType": "address",
          "name": "",
          "type": "address"
        }
      ],
      "stateMutability": "view",
      "type": "function",
      "constant": true
    },
    {
      "inputs": [
        {
          "internalType": "uint256",
          "name": "tokenId",
          "type": "uint256"
        }
      ],
      "name": "ownerOf",
      "outputs": [
        {
          "internalType": "address",
          "name": "",
          "type": "address"
        }
      ],
      "stateMutability": "view",
      "type": "function",
      "constant": true
    },
    {
      "inputs": [],
      "name": "paused",
      "outputs": [
        {
          "internalType": "bool",
          "name": "",
          "type": "bool"
        }
      ],
      "stateMutability": "view",
      "type": "function",
      "constant": true
    },
    {
      "inputs": [],
      "name": "renounceOwnership",
      "outputs": [],
      "stateMutability": "nonpayable",
      "type": "function"
    },
    {
      "inputs": [
        {
          "internalType": "bytes32",
          "name": "role",
          "type": "bytes32"
        },
        {
          "internalType": "address",
          "name": "account",
          "type": "address"
        }
      ],
      "name": "renounceRole",
      "outputs": [],
      "stateMutability": "nonpayable",
      "type": "function"
    },
    {
      "inputs": [
        {
          "internalType": "bytes32",
          "name": "role",
          "type": "bytes32"
        },
        {
          "internalType": "address",
          "name": "account",
          "type": "address"
        }
      ],
      "name": "revokeRole",
      "outputs": [],
      "stateMutability": "nonpayable",
      "type": "function"
    },
    {
      "inputs": [
        {
          "internalType": "address",
          "name": "from",
          "type": "address"
        },
        {
          "internalType": "address",
          "name": "to",
          "type": "address"
        },
        {
          "internalType": "uint256",
          "name": "tokenId",
          "type": "uint256"
        }
      ],
      "name": "safeTransferFrom",
      "outputs": [],
      "stateMutability": "nonpayable",
      "type": "function"
    },
    {
      "inputs": [
        {
          "internalType": "address",
          "name": "from",
          "type": "address"
        },
        {
          "internalType": "address",
          "name": "to",
          "type": "address"
        },
        {
          "internalType": "uint256",
          "name": "tokenId",
          "type": "uint256"
        },
        {
          "internalType": "bytes",
          "name": "_data",
          "type": "bytes"
        }
      ],
      "name": "safeTransferFrom",
      "outputs": [],
      "stateMutability": "nonpayable",
      "type": "function"
    },
    {
      "inputs": [
        {
          "internalType": "address",
          "name": "operator",
          "type": "address"
        },
        {
          "internalType": "bool",
          "name": "approved",
          "type": "bool"
        }
      ],
      "name": "setApprovalForAll",
      "outputs": [],
      "stateMutability": "nonpayable",
      "type": "function"
    },
    {
      "inputs": [],
      "name": "symbol",
      "outputs": [
        {
          "internalType": "string",
          "name": "",
          "type": "string"
        }
      ],
      "stateMutability": "view",
      "type": "function",
      "constant": true
    },
    {
      "inputs": [
        {
          "internalType": "uint256",
          "name": "index",
          "type": "uint256"
        }
      ],
      "name": "tokenByIndex",
      "outputs": [
        {
          "internalType": "uint256",
          "name": "",
          "type": "uint256"
        }
      ],
      "stateMutability": "view",
      "type": "function",
      "constant": true
    },
    {
      "inputs": [
        {
          "internalType": "address",
          "name": "owner",
          "type": "address"
        },
        {
          "internalType": "uint256",
          "name": "index",
          "type": "uint256"
        }
      ],
      "name": "tokenOfOwnerByIndex",
      "outputs": [
        {
          "internalType": "uint256",
          "name": "",
          "type": "uint256"
        }
      ],
      "stateMutability": "view",
      "type": "function",
      "constant": true
    },
    {
      "inputs": [],
      "name": "totalSupply",
      "outputs": [
        {
          "internalType": "uint256",
          "name": "",
          "type": "uint256"
        }
      ],
      "stateMutability": "view",
      "type": "function",
      "constant": true
    },
    {
      "inputs": [
        {
          "internalType": "address",
          "name": "from",
          "type": "address"
        },
        {
          "internalType": "address",
          "name": "to",
          "type": "address"
        },
        {
          "internalType": "uint256",
          "name": "tokenId",
          "type": "uint256"
        }
      ],
      "name": "transferFrom",
      "outputs": [],
      "stateMutability": "nonpayable",
      "type": "function"
    },
    {
      "inputs": [
        {
          "internalType": "address",
          "name": "newOwner",
          "type": "address"
        }
      ],
      "name": "transferOwnership",
      "outputs": [],
      "stateMutability": "nonpayable",
      "type": "function"
    },
    {
      "inputs": [
        {
          "internalType": "address",
          "name": "to",
          "type": "address"
        },
        {
          "internalType": "uint256",
          "name": "tokenId",
          "type": "uint256"
        },
        {
          "internalType": "bytes",
          "name": "tokenCID",
          "type": "bytes"
        }
      ],
      "name": "mint",
      "outputs": [],
      "stateMutability": "nonpayable",
      "type": "function"
    },
    {
      "inputs": [
        {
          "internalType": "address",
          "name": "to",
          "type": "address"
        },
        {
          "internalType": "uint256",
          "name": "tokenId",
          "type": "uint256"
        },
        {
          "internalType": "bytes",
          "name": "tokenCID",
          "type": "bytes"
        },
        {
          "internalType": "uint8",
          "name": "v",
          "type": "uint8"
        },
        {
          "internalType": "bytes32",
          "name": "r",
          "type": "bytes32"
        },
        {
          "internalType": "bytes32",
          "name": "s",
          "type": "bytes32"
        }
      ],
      "name": "mint",
      "outputs": [],
      "stateMutability": "nonpayable",
      "type": "function"
    },
    {
      "inputs": [
        {
          "internalType": "uint256",
          "name": "tokenId",
          "type": "uint256"
        },
        {
          "internalType": "bytes",
          "name": "tokenCID",
          "type": "bytes"
        }
      ],
      "name": "setTokenCID",
      "outputs": [],
      "stateMutability": "nonpayable",
      "type": "function"
    },
    {
      "inputs": [
        {
          "internalType": "address",
          "name": "userAddress",
          "type": "address"
        },
        {
          "internalType": "bytes",
          "name": "functionSignature",
          "type": "bytes"
        },
        {
          "internalType": "bytes32",
          "name": "sigR",
          "type": "bytes32"
        },
        {
          "internalType": "bytes32",
          "name": "sigS",
          "type": "bytes32"
        },
        {
          "internalType": "uint8",
          "name": "sigV",
          "type": "uint8"
        }
      ],
      "name": "executeMetaTransaction",
      "outputs": [
        {
          "internalType": "bytes",
          "name": "",
          "type": "bytes"
        }
      ],
      "stateMutability": "payable",
      "type": "function",
      "payable": true
    },
    {
      "inputs": [],
      "name": "pause",
      "outputs": [],
      "stateMutability": "nonpayable",
      "type": "function"
    },
    {
      "inputs": [],
      "name": "unpause",
      "outputs": [],
      "stateMutability": "nonpayable",
      "type": "function"
    },
    {
      "inputs": [],
      "name": "implode",
      "outputs": [],
      "stateMutability": "nonpayable",
      "type": "function"
    },
    {
      "inputs": [
        {
          "internalType": "string",
          "name": "baseIPFSURI_",
          "type": "string"
        }
      ],
      "name": "setIPFSBaseURI",
      "outputs": [],
      "stateMutability": "nonpayable",
      "type": "function"
    },
    {
      "inputs": [
        {
          "internalType": "bytes",
          "name": "contractCID_",
          "type": "bytes"
        }
      ],
      "name": "setContractCID",
      "outputs": [],
      "stateMutability": "nonpayable",
      "type": "function"
    },
    {
      "inputs": [
        {
          "internalType": "string",
          "name": "baseURI_",
          "type": "string"
        }
      ],
      "name": "setBaseURI",
      "outputs": [],
      "stateMutability": "nonpayable",
      "type": "function"
    },
    {
      "inputs": [
        {
          "internalType": "address",
          "name": "proxyRegistryAddress_",
          "type": "address"
        }
      ],
      "name": "setProxyRegistry",
      "outputs": [],
      "stateMutability": "nonpayable",
      "type": "function"
    },
    {
      "inputs": [],
      "name": "contractURI",
      "outputs": [
        {
          "internalType": "string",
          "name": "",
          "type": "string"
        }
      ],
      "stateMutability": "view",
      "type": "function",
      "constant": true
    },
    {
      "inputs": [
        {
          "internalType": "address",
          "name": "user",
          "type": "address"
        }
      ],
      "name": "getNonce",
      "outputs": [
        {
          "internalType": "uint256",
          "name": "",
          "type": "uint256"
        }
      ],
      "stateMutability": "view",
      "type": "function",
      "constant": true
    },
    {
      "inputs": [
        {
          "internalType": "uint256",
          "name": "tokenId",
          "type": "uint256"
        }
      ],
      "name": "exists",
      "outputs": [
        {
          "internalType": "bool",
          "name": "",
          "type": "bool"
        }
      ],
      "stateMutability": "view",
      "type": "function",
      "constant": true
    },
    {
      "inputs": [
        {
          "internalType": "uint256",
          "name": "tokenId",
          "type": "uint256"
        }
      ],
      "name": "tokenURI",
      "outputs": [
        {
          "internalType": "string",
          "name": "",
          "type": "string"
        }
      ],
      "stateMutability": "view",
      "type": "function",
      "constant": true
    },
    {
      "inputs": [
        {
          "internalType": "address",
          "name": "owner",
          "type": "address"
        },
        {
          "internalType": "address",
          "name": "operator",
          "type": "address"
        }
      ],
      "name": "isApprovedForAll",
      "outputs": [
        {
          "internalType": "bool",
          "name": "",
          "type": "bool"
        }
      ],
      "stateMutability": "view",
      "type": "function",
      "constant": true
    },
    {
      "inputs": [
        {
          "internalType": "address",
          "name": "forwarder",
          "type": "address"
        }
      ],
      "name": "isTrustedForwarder",
      "outputs": [
        {
          "internalType": "bool",
          "name": "",
          "type": "bool"
        }
      ],
      "stateMutability": "view",
      "type": "function",
      "constant": true
    },
    {
      "inputs": [
        {
          "internalType": "bytes4",
          "name": "interfaceId",
          "type": "bytes4"
        }
      ],
      "name": "supportsInterface",
      "outputs": [
        {
          "internalType": "bool",
          "name": "",
          "type": "bool"
        }
      ],
      "stateMutability": "view",
      "type": "function",
      "constant": true
    }
  ],
  "bytecode": "0x6101406040523480156200001257600080fd5b506040516200467a3803806200467a8339810160408190526200003591620004dc565b60006040518060400160405280600681526020016511da5d13919560d21b8152506040518060400160405280600381526020016253484160e81b8152506040518060400160405280600681526020016511da5d13919560d21b815250604051806040016040528060018152602001603160f81b8152506000620000bd6200025960201b60201c565b600080546001600160a01b0319166001600160a01b0383169081178255604051929350917f8be0079c531659141344cd1fd0a4f28419497f9722a3daafe3b4186f6b6457e0908290a350815160209283012081519183019190912060c082815260e08290524660a0818152604080517f8b73c3c69bb8fe3d512ecc4cf759cc79239f7b179b0ffacaa9a75d522b39400f818901819052818301979097526060810195909552608080860193909352308583015280518086039092018252939092019092528051908401209052610100528251620001a1916002919085019062000369565b508051620001b790600390602084019062000369565b5050600c805460ff191690555060601b6001600160601b03191661012052620001e260003362000276565b6200020e7f9f2df0fed2c77648de5860a4cc508cd0818c85b8b8a1ab4ceeef8d981c8956a63362000276565b82516200022390600d90602086019062000369565b5081516200023990600e90602085019062000369565b5080516200024f90600f90602084019062000369565b50505050620005d0565b6000620002706200028660201b62001ddd1760201c565b90505b90565b620002828282620002be565b5050565b600030331415620002a1575060131936013560601c62000273565b620002b66200036560201b62001dff1760201c565b905062000273565b60008281526001602090815260408083206001600160a01b038516845290915290205460ff16620002825760008281526001602081815260408084206001600160a01b0386168552909152909120805460ff191690911790556200032162000259565b6001600160a01b0316816001600160a01b0316837f2f8788117e7eff1d82e926ec794901d17c78024a50270940304540a733656f0d60405160405180910390a45050565b3390565b82805462000377906200057d565b90600052602060002090601f0160209004810192826200039b5760008555620003e6565b82601f10620003b657805160ff1916838001178555620003e6565b82800160010185558215620003e6579182015b82811115620003e6578251825591602001919060010190620003c9565b50620003f4929150620003f8565b5090565b5b80821115620003f45760008155600101620003f9565b60006001600160401b03808411156200042c576200042c620005ba565b604051601f8501601f19908116603f01168101908282118183101715620004575762000457620005ba565b816040528093508581528686860111156200047157600080fd5b600092505b858310156200049657828501516020848301015260208301925062000476565b85831115620004a9576000602087830101525b5050509392505050565b600082601f830112620004c4578081fd5b620004d5838351602085016200040f565b9392505050565b600080600060608486031215620004f1578283fd5b83516001600160401b038082111562000508578485fd5b6200051687838801620004b3565b945060208601519150808211156200052c578384fd5b6200053a87838801620004b3565b9350604086015191508082111562000550578283fd5b508401601f8101861362000562578182fd5b62000573868251602084016200040f565b9150509250925092565b600181811c908216806200059257607f821691505b60208210811415620005b457634e487b7160e01b600052602260045260246000fd5b50919050565b634e487b7160e01b600052604160045260246000fd5b60805160a05160c05160e051610100516101205160601c61405a620006206000396000505060006127ba01526000612809015260006127e40152600061276701526000612790015261405a6000f3fe6080604052600436106102675760003560e01c80636a9ef2d911610144578063b88d4fde116100b6578063e8a3d4851161007a578063e8a3d48514610722578063e985e9c514610737578063edcf9ed314610757578063f06fb07b14610777578063f2fde38b14610797578063f5b541a6146107b757610267565b8063b88d4fde14610680578063bf1696ce146106a0578063c87b56dd146106c0578063d5391393146106e0578063d547741f1461070257610267565b806391d148541161010857806391d14854146105d657806394d008ef146105f657806395d89b4114610616578063a217fddf1461062b578063a22cb46514610640578063adfdeef91461066057610267565b80636a9ef2d91461054e57806370a082311461056e578063715018a61461058e5780638456cb59146105a35780638da5cb5b146105b857610267565b806336568abe116101dd5780634f558e79116101a15780634f558e791461048a5780634f6ccce7146104aa57806355f804b3146104ca578063572b6c05146104ea5780635c975abb146105165780636352211e1461052e57610267565b806336568abe146104005780633d8aa9b8146104205780633f4ba83a1461043557806342842e0e1461044a57806342966c681461046a57610267565b806318160ddd1161022f57806318160ddd1461033057806323b872dd1461034f578063248a9ca31461036f5780632d0335ab146103a05780632f2ff15d146103c05780632f745c59146103e057610267565b806301ffc9a71461026c57806306fdde03146102a1578063081812fc146102c3578063095ea7b3146102fb5780630c53c51c1461031d575b600080fd5b34801561027857600080fd5b5061028c610287366004613a5a565b6107eb565b60405190151581526020015b60405180910390f35b3480156102ad57600080fd5b506102b66107fe565b6040516102989190613d4f565b3480156102cf57600080fd5b506102e36102de366004613a1e565b610891565b6040516001600160a01b039091168152602001610298565b34801561030757600080fd5b5061031b610316366004613922565b61092b565b005b6102b661032b3660046138b0565b610a81565b34801561033c57600080fd5b50600a545b604051908152602001610298565b34801561035b57600080fd5b5061031b61036a3660046137d5565b610d00565b34801561037b57600080fd5b5061034161038a366004613a1e565b6000908152600160208190526040909120015490565b3480156103ac57600080fd5b506103416103bb366004613781565b610d38565b3480156103cc57600080fd5b5061031b6103db366004613a36565b610d56565b3480156103ec57600080fd5b506103416103fb366004613922565b610de8565b34801561040c57600080fd5b5061031b61041b366004613a36565b610e81565b34801561042c57600080fd5b5061031b610f0b565b34801561044157600080fd5b5061031b610f63565b34801561045657600080fd5b5061031b6104653660046137d5565b610fc2565b34801561047657600080fd5b5061031b610485366004613a1e565b610fdd565b34801561049657600080fd5b5061028c6104a5366004613a1e565b611059565b3480156104b657600080fd5b506103416104c5366004613a1e565b611078565b3480156104d657600080fd5b5061031b6104e5366004613ae1565b611119565b3480156104f657600080fd5b5061028c610505366004613781565b6001600160a01b0381163014919050565b34801561052257600080fd5b50600c5460ff1661028c565b34801561053a57600080fd5b506102e3610549366004613a1e565b611189565b34801561055a57600080fd5b5061031b610569366004613a92565b611200565b34801561057a57600080fd5b50610341610589366004613781565b611274565b34801561059a57600080fd5b5061031b6112fb565b3480156105af57600080fd5b5061031b6113be565b3480156105c457600080fd5b506000546001600160a01b03166102e3565b3480156105e257600080fd5b5061028c6105f1366004613a36565b611419565b34801561060257600080fd5b5061031b61061136600461394d565b611444565b34801561062257600080fd5b506102b66114f1565b34801561063757600080fd5b50610341600081565b34801561064c57600080fd5b5061031b61065b36600461387f565b611500565b34801561066c57600080fd5b5061031b61067b366004613781565b611602565b34801561068c57600080fd5b5061031b61069b366004613815565b61168f565b3480156106ac57600080fd5b5061031b6106bb366004613ae1565b6116c8565b3480156106cc57600080fd5b506102b66106db366004613a1e565b61173d565b3480156106ec57600080fd5b50610341600080516020613fe583398151915281565b34801561070e57600080fd5b5061031b61071d366004613a36565b61189b565b34801561072e57600080fd5b506102b661191c565b34801561074357600080fd5b5061028c61075236600461379d565b6119b6565b34801561076357600080fd5b5061031b6107723660046139a4565b611ace565b34801561078357600080fd5b5061031b610792366004613b27565b611c0a565b3480156107a357600080fd5b5061031b6107b2366004613781565b611ca4565b3480156107c357600080fd5b506103417f97667070c54ef182b0f5858b034beac1b6f3089aa2d3188bb1e8929f4fa9b92981565b60006107f682611e03565b90505b919050565b60606002805461080d90613eaa565b80601f016020809104026020016040519081016040528092919081815260200182805461083990613eaa565b80156108865780601f1061085b57610100808354040283529160200191610886565b820191906000526020600020905b81548152906001019060200180831161086957829003601f168201915b505050505090505b90565b6000818152600460205260408120546001600160a01b031661090f5760405162461bcd60e51b815260206004820152602c60248201527f4552433732313a20617070726f76656420717565727920666f72206e6f6e657860448201526b34b9ba32b73a103a37b5b2b760a11b60648201526084015b60405180910390fd5b506000908152600660205260409020546001600160a01b031690565b600061093682611189565b9050806001600160a01b0316836001600160a01b031614156109a45760405162461bcd60e51b815260206004820152602160248201527f4552433732313a20617070726f76616c20746f2063757272656e74206f776e656044820152603960f91b6064820152608401610906565b806001600160a01b03166109b6611e28565b6001600160a01b03161480610a005750610a00816109d2611e28565b6001600160a01b03918216600090815260076020908152604080832093909416825291909152205460ff1690565b610a725760405162461bcd60e51b815260206004820152603860248201527f4552433732313a20617070726f76652063616c6c6572206973206e6f74206f7760448201527f6e6572206e6f7220617070726f76656420666f7220616c6c00000000000000006064820152608401610906565b610a7c8383611e32565b505050565b60408051606080820183526001600160a01b038816600081815260126020908152858220548552808501929092528385018990528451608081019095526043808652929490929091613f829083013980516020918201208351848301516040808701518051908601209051610b15950193845260208401929092526001600160a01b03166040830152606082015260800190565b6040516020818303038152906040528051906020012090506000610b3882611ea0565b90506000610b4882878a8a611eee565b9050896001600160a01b0316816001600160a01b031614610bbd5760405162461bcd60e51b815260206004820152602960248201527f4769744e46543a205369676e657220616e64207369676e617475726520646f206044820152680dcdee840dac2e8c6d60bb1b6064820152608401610906565b6001600160a01b038a166000908152601260205260409020805460010190557f5845892132946850460bff5a0083f71031bc5bf9aadcd40f1de79423eac9b10b8a338b604051610c0f93929190613cdd565b60405180910390a1600080306001600160a01b03168b8d604051602001610c37929190613c4c565b60408051601f1981840301815290829052610c5191613c30565b6000604051808303816000865af19150503d8060008114610c8e576040519150601f19603f3d011682016040523d82523d6000602084013e610c93565b606091505b509150915081610cf15760405162461bcd60e51b8152602060048201526024808201527f4769744e46543a2046756e6374696f6e2063616c6c206e6f74207375636365736044820152631cd99d5b60e21b6064820152608401610906565b9b9a5050505050505050505050565b610d11610d0b611e28565b82612099565b610d2d5760405162461bcd60e51b815260040161090690613db4565b610a7c838383612168565b6001600160a01b0381166000908152601260205260408120546107f6565b60008281526001602081905260409091200154610d76905b6105f1611e28565b610dda5760405162461bcd60e51b815260206004820152602f60248201527f416363657373436f6e74726f6c3a2073656e646572206d75737420626520616e60448201526e0818591b5a5b881d1bc819dc985b9d608a1b6064820152608401610906565b610de48282612313565b5050565b6000610df383611274565b8210610e555760405162461bcd60e51b815260206004820152602b60248201527f455243373231456e756d657261626c653a206f776e657220696e646578206f7560448201526a74206f6620626f756e647360a81b6064820152608401610906565b506001600160a01b03821660009081526008602090815260408083208484529091529020545b92915050565b610e89611e28565b6001600160a01b0316816001600160a01b031614610f015760405162461bcd60e51b815260206004820152602f60248201527f416363657373436f6e74726f6c3a2063616e206f6e6c792072656e6f756e636560448201526e103937b632b9903337b91039b2b63360891b6064820152608401610906565b610de4828261239b565b610f16600033611419565b610f605760405162461bcd60e51b81526020600482015260276024820152600080516020613fc5833981519152604482015266696d706c6f646560c81b6064820152608401610906565b33ff5b610f6e600033611419565b610fb85760405162461bcd60e51b81526020600482015260276024820152600080516020613fc5833981519152604482015266756e706175736560c81b6064820152608401610906565b610fc0612420565b565b610a7c8383836040518060200160405280600081525061168f565b610fe8610d0b611e28565b61104d5760405162461bcd60e51b815260206004820152603060248201527f4552433732314275726e61626c653a2063616c6c6572206973206e6f74206f7760448201526f1b995c881b9bdc88185c1c1c9bdd995960821b6064820152608401610906565b611056816124b9565b50565b6000818152600460205260408120546001600160a01b031615156107f6565b6000611083600a5490565b82106110e65760405162461bcd60e51b815260206004820152602c60248201527f455243373231456e756d657261626c653a20676c6f62616c20696e646578206f60448201526b7574206f6620626f756e647360a01b6064820152608401610906565b600a828154811061110757634e487b7160e01b600052603260045260246000fd5b90600052602060002001549050919050565b611124600033611419565b6111765760405162461bcd60e51b815260206004820152602f6024820152600080516020613fc583398151915260448201526e6368616e676520626173652075726960881b6064820152608401610906565b8051610de490600e90602084019061360a565b6000818152600460205260408120546001600160a01b0316806107f65760405162461bcd60e51b815260206004820152602960248201527f4552433732313a206f776e657220717565727920666f72206e6f6e657869737460448201526832b73a103a37b5b2b760b91b6064820152608401610906565b61120b600033611419565b6112615760405162461bcd60e51b81526020600482015260336024820152600080516020613fc583398151915260448201527218da185b99d94818dbdb9d1c9858dd0810d251606a1b6064820152608401610906565b8051610de490600f90602084019061360a565b60006001600160a01b0382166112df5760405162461bcd60e51b815260206004820152602a60248201527f4552433732313a2062616c616e636520717565727920666f7220746865207a65604482015269726f206164647265737360b01b6064820152608401610906565b506001600160a01b031660009081526005602052604090205490565b611303611e28565b6001600160a01b031661131e6000546001600160a01b031690565b6001600160a01b0316146113745760405162461bcd60e51b815260206004820181905260248201527f4f776e61626c653a2063616c6c6572206973206e6f7420746865206f776e65726044820152606401610906565b600080546040516001600160a01b03909116907f8be0079c531659141344cd1fd0a4f28419497f9722a3daafe3b4186f6b6457e0908390a3600080546001600160a01b0319169055565b6113c9600033611419565b6114115760405162461bcd60e51b81526020600482015260256024820152600080516020613fc5833981519152604482015264706175736560d81b6064820152608401610906565b610fc06124f9565b60009182526001602090815260408084206001600160a01b0393909316845291905290205460ff1690565b61145e600080516020613fe58339815191526105f1611e28565b6114b85760405162461bcd60e51b815260206004820152602560248201527f4769744e46543a206d7573742068617665206d696e74657220726f6c6520746f604482015264081b5a5b9d60da1b6064820152608401610906565b6114c28383612575565b600181511115610a7c57600082815260116020908152604090912082516114eb9284019061360a565b50505050565b60606003805461080d90613eaa565b611508611e28565b6001600160a01b0316826001600160a01b031614156115695760405162461bcd60e51b815260206004820152601960248201527f4552433732313a20617070726f766520746f2063616c6c6572000000000000006044820152606401610906565b8060076000611576611e28565b6001600160a01b03908116825260208083019390935260409182016000908120918716808252919093529120805460ff1916921515929092179091556115ba611e28565b6001600160a01b03167f17307eab39ab6107e8899845ad3d59bd9653f200f220920489ca2b5937696c31836040516115f6911515815260200190565b60405180910390a35050565b61160d600033611419565b61166d5760405162461bcd60e51b815260206004820152603d6024820152600080516020613fc583398151915260448201527f6368616e67652070726f787920726567697374727920616464726573730000006064820152608401610906565b601080546001600160a01b0319166001600160a01b0392909216919091179055565b6116a061169a611e28565b83612099565b6116bc5760405162461bcd60e51b815260040161090690613db4565b6114eb8484848461258f565b6116d3600033611419565b61172a5760405162461bcd60e51b81526020600482015260346024820152600080516020613fc58339815191526044820152736368616e6765204950465320626173652075726960601b6064820152608401610906565b8051610de490600d90602084019061360a565b6000818152600460205260409020546060906001600160a01b03166117b45760405162461bcd60e51b815260206004820152602760248201527f4769744e46543a2055524920717565727920666f72206e6f6e6578697374656e6044820152663a103a37b5b2b760c91b6064820152608401610906565b600082815260116020526040812080546117cd90613eaa565b80601f01602080910402602001604051908101604052809291908181526020018280546117f990613eaa565b80156118465780601f1061181b57610100808354040283529160200191611846565b820191906000526020600020905b81548152906001019060200180831161182957829003601f168201915b5050505050905060008151111561186857611860816125c2565b9150506107f9565b600e611873846125f6565b604051602001611884929190613ca8565b604051602081830303815290604052915050919050565b600082815260016020819052604090912001546118b790610d6e565b610f015760405162461bcd60e51b815260206004820152603060248201527f416363657373436f6e74726f6c3a2073656e646572206d75737420626520616e60448201526f2061646d696e20746f207265766f6b6560801b6064820152608401610906565b60606119b1600f805461192e90613eaa565b80601f016020809104026020016040519081016040528092919081815260200182805461195a90613eaa565b80156119a75780601f1061197c576101008083540402835291602001916119a7565b820191906000526020600020905b81548152906001019060200180831161198a57829003601f168201915b50505050506125c2565b905090565b60006119e27f97667070c54ef182b0f5858b034beac1b6f3089aa2d3188bb1e8929f4fa9b92983611419565b156119ef57506001610e7b565b6010546001600160a01b031615611a9d5760105460405163c455279160e01b81526001600160a01b03858116600483015291821691841690829063c45527919060240160206040518083038186803b158015611a4a57600080fd5b505afa158015611a5e573d6000803e3d6000fd5b505050506040513d601f19601f82011682018060405250810190611a829190613ac5565b6001600160a01b03161415611a9b576001915050610e7b565b505b6001600160a01b0380841660009081526007602090815260408083209386168352929052205460ff165b9392505050565b8351602080860191909120604080517f80739d6c1b8cf57ab67f140c16126cfc387aceaa8545859aca6c77834db5c80c818501526001600160a01b038a1681830152606081018990526080808201939093528151808203909301835260a001905280519101206000611b3f82611ea0565b90506000611b4f82878787611eee565b9050611b69600080516020613fe583398151915282611419565b611bca5760405162461bcd60e51b815260206004820152602c60248201527f4769744e46543a207369676e6572206d7573742068617665206d696e7465722060448201526b1c9bdb19481d1bc81b5a5b9d60a21b6064820152608401610906565b611bd48989612575565b600187511115611bff5760008881526011602090815260409091208851611bfd928a019061360a565b505b505050505050505050565b611c24600080516020613fe58339815191526105f1611e28565b611c855760405162461bcd60e51b815260206004820152602c60248201527f4769744e46543a206d7573742068617665206d696e74657220746f206368616e60448201526b19d9481d1bdad95b8818da5960a21b6064820152608401610906565b60008281526011602090815260409091208251610a7c9284019061360a565b611cac611e28565b6001600160a01b0316611cc76000546001600160a01b031690565b6001600160a01b031614611d1d5760405162461bcd60e51b815260206004820181905260248201527f4f776e61626c653a2063616c6c6572206973206e6f7420746865206f776e65726044820152606401610906565b6001600160a01b038116611d825760405162461bcd60e51b815260206004820152602660248201527f4f776e61626c653a206e6577206f776e657220697320746865207a65726f206160448201526564647265737360d01b6064820152608401610906565b600080546040516001600160a01b03808516939216917f8be0079c531659141344cd1fd0a4f28419497f9722a3daafe3b4186f6b6457e091a3600080546001600160a01b0319166001600160a01b0392909216919091179055565b600030331415611df6575060131936013560601c61088e565b335b905061088e565b3390565b60006001600160e01b0319821663780e9d6360e01b14806107f657506107f682612723565b60006119b1611ddd565b600081815260066020526040902080546001600160a01b0319166001600160a01b0384169081179091558190611e6782611189565b6001600160a01b03167f8c5be1e5ebec7d5bd14f71427d1e84f3dd0314c0f7b2291e5b200ac8c7c3b92560405160405180910390a45050565b60006107f6611ead612763565b8360405161190160f01b6020820152602281018390526042810182905260009060620160405160208183030381529060405280519060200120905092915050565b60007f7fffffffffffffffffffffffffffffff5d576e7357a4501ddfe92f46681b20a0821115611f6b5760405162461bcd60e51b815260206004820152602260248201527f45434453413a20696e76616c6964207369676e6174757265202773272076616c604482015261756560f01b6064820152608401610906565b8360ff16601b1480611f8057508360ff16601c145b611fd75760405162461bcd60e51b815260206004820152602260248201527f45434453413a20696e76616c6964207369676e6174757265202776272076616c604482015261756560f01b6064820152608401610906565b6040805160008082526020820180845288905260ff871692820192909252606081018590526080810184905260019060a0016020604051602081039080840390855afa15801561202b573d6000803e3d6000fd5b5050604051601f1901519150506001600160a01b03811661208e5760405162461bcd60e51b815260206004820152601860248201527f45434453413a20696e76616c6964207369676e617475726500000000000000006044820152606401610906565b90505b949350505050565b6000818152600460205260408120546001600160a01b03166121125760405162461bcd60e51b815260206004820152602c60248201527f4552433732313a206f70657261746f7220717565727920666f72206e6f6e657860448201526b34b9ba32b73a103a37b5b2b760a11b6064820152608401610906565b600061211d83611189565b9050806001600160a01b0316846001600160a01b031614806121585750836001600160a01b031661214d84610891565b6001600160a01b0316145b80612091575061209181856119b6565b826001600160a01b031661217b82611189565b6001600160a01b0316146121e35760405162461bcd60e51b815260206004820152602960248201527f4552433732313a207472616e73666572206f6620746f6b656e2074686174206960448201526839903737ba1037bbb760b91b6064820152608401610906565b6001600160a01b0382166122455760405162461bcd60e51b8152602060048201526024808201527f4552433732313a207472616e7366657220746f20746865207a65726f206164646044820152637265737360e01b6064820152608401610906565b612250838383612859565b61225b600082611e32565b6001600160a01b0383166000908152600560205260408120805460019290612284908490613e50565b90915550506001600160a01b03821660009081526005602052604081208054600192906122b2908490613e05565b909155505060008181526004602052604080822080546001600160a01b0319166001600160a01b0386811691821790925591518493918716917fddf252ad1be2c89b69c2b068fc378daa952ba7f163c4a11628f55a4df523b3ef91a4505050565b61231d8282611419565b610de45760008281526001602081815260408084206001600160a01b0386168552909152909120805460ff19169091179055612357611e28565b6001600160a01b0316816001600160a01b0316837f2f8788117e7eff1d82e926ec794901d17c78024a50270940304540a733656f0d60405160405180910390a45050565b6123a58282611419565b15610de45760008281526001602090815260408083206001600160a01b03851684529091529020805460ff191690556123dc611e28565b6001600160a01b0316816001600160a01b0316837ff6391f5c32d9c69d2a47ea670b442974b53935d1edc7fd64eb21e047a839171b60405160405180910390a45050565b600c5460ff166124695760405162461bcd60e51b815260206004820152601460248201527314185d5cd8589b194e881b9bdd081c185d5cd95960621b6044820152606401610906565b600c805460ff191690557f5db9ee0a495bf2e6ff9c91a7834c1ba4fdd244a5e8aa4e537bd38aeae4b073aa61249c611e28565b6040516001600160a01b03909116815260200160405180910390a1565b6124c2816128b6565b600081815260116020526040902080546124db90613eaa565b1590506110565760008181526011602052604081206110569161368e565b600c5460ff161561253f5760405162461bcd60e51b815260206004820152601060248201526f14185d5cd8589b194e881c185d5cd95960821b6044820152606401610906565b600c805460ff191660011790557f62e78cea01bee320cd4e420270b5ea74000d11b0c9f74754ebdbfc544b05a25861249c611e28565b610de482826040518060200160405280600081525061295d565b61259a848484612168565b6125a684848484612990565b6114eb5760405162461bcd60e51b815260040161090690613d62565b6060600d6125cf83612aa1565b6040516020016125e0929190613c83565b6040516020818303038152906040529050919050565b60408051602880825260608281019093526000919060208201818036833701905050905060275b80156126ad576f181899199a1a9b1b9c1cb0b131b232b360811b84600f166010811061265957634e487b7160e01b600052603260045260246000fd5b1a60f81b82828151811061267d57634e487b7160e01b600052603260045260246000fd5b60200101906001600160f81b031916908160001a90535060049390931c92806126a581613e93565b91505061261d565b506f181899199a1a9b1b9c1cb0b131b232b360811b83601081106126e157634e487b7160e01b600052603260045260246000fd5b1a60f81b8160008151811061270657634e487b7160e01b600052603260045260246000fd5b60200101906001600160f81b031916908160001a90535092915050565b60006001600160e01b031982166380ac58cd60e01b148061275457506001600160e01b03198216635b5e139f60e01b145b806107f657506107f68261319e565b60007f00000000000000000000000000000000000000000000000000000000000000004614156127b457507f000000000000000000000000000000000000000000000000000000000000000061088e565b604080517f00000000000000000000000000000000000000000000000000000000000000006020808301919091527f0000000000000000000000000000000000000000000000000000000000000000828401527f000000000000000000000000000000000000000000000000000000000000000060608301524660808301523060a0808401919091528351808403909101815260c09092019092528051910120611df8565b6128648383836131d3565b60a081901c15610a7c5760405162461bcd60e51b815260206004820152601860248201527f4769744e46543a20696e76616c696420676974207368613100000000000000006044820152606401610906565b60006128c182611189565b90506128cf81600084612859565b6128da600083611e32565b6001600160a01b0381166000908152600560205260408120805460019290612903908490613e50565b909155505060008281526004602052604080822080546001600160a01b0319169055518391906001600160a01b038416907fddf252ad1be2c89b69c2b068fc378daa952ba7f163c4a11628f55a4df523b3ef908390a45050565b6129678383613245565b6129746000848484612990565b610a7c5760405162461bcd60e51b815260040161090690613d62565b60006001600160a01b0384163b15612a9957836001600160a01b031663150b7a026129b9611e28565b8786866040518563ffffffff1660e01b81526004016129db9493929190613d12565b602060405180830381600087803b1580156129f557600080fd5b505af1925050508015612a25575060408051601f3d908101601f19168201909252612a2291810190613a76565b60015b612a7f573d808015612a53576040519150601f19603f3d011682016040523d82523d6000602084013e612a58565b606091505b508051612a775760405162461bcd60e51b815260040161090690613d62565b805181602001fd5b6001600160e01b031916630a85bd0160e11b149050612091565b506001612091565b6060600082516008612ab39190613e31565b90506000612ac2600583613e1d565b90506000612ad1600584613f00565b1115612ae55780612ae181613ee5565b9150505b80612aef81613ee5565b91505060008167ffffffffffffffff811115612b1b57634e487b7160e01b600052604160045260246000fd5b6040519080825280601f01601f191660200182016040528015612b45576020820181803683370190505b5085519091506000908190603160f91b8483612b6081613ee5565b945081518110612b8057634e487b7160e01b600052603260045260246000fd5b60200101906001600160f81b031916908160001a9053505b80831015613192576000888481518110612bc257634e487b7160e01b600052603260045260246000fd5b016020015160f81c9050600082612bda866001613e05565b10612be6576000612c19565b89612bf2866001613e05565b81518110612c1057634e487b7160e01b600052603260045260246000fd5b016020015160f81c5b9050600083612c29876002613e05565b10612c35576000612c68565b8a612c41876002613e05565b81518110612c5f57634e487b7160e01b600052603260045260246000fd5b016020015160f81c5b9050600084612c78886003613e05565b10612c84576000612cb7565b8b612c90886003613e05565b81518110612cae57634e487b7160e01b600052603260045260246000fd5b016020015160f81c5b9050600085612cc7896004613e05565b10612cd3576000612d06565b8c612cdf896004613e05565b81518110612cfd57634e487b7160e01b600052603260045260246000fd5b016020015160f81c5b9050600080516020614005833981519152601f600387901c1660208110612d3d57634e487b7160e01b600052603260045260246000fd5b1a60f81b8988612d4c81613ee5565b995081518110612d6c57634e487b7160e01b600052603260045260246000fd5b60200101906001600160f81b031916908160001a905350600080516020614005833981519152601c600287901b166003600687901c161760208110612dc157634e487b7160e01b600052603260045260246000fd5b1a60f81b8988612dd081613ee5565b995081518110612df057634e487b7160e01b600052603260045260246000fd5b60200101906001600160f81b031916908160001a90535085612e13896001613e05565b10612e22575050505050613192565b600080516020614005833981519152601f600186901c1660208110612e5757634e487b7160e01b600052603260045260246000fd5b1a60f81b8988612e6681613ee5565b995081518110612e8657634e487b7160e01b600052603260045260246000fd5b60200101906001600160f81b031916908160001a90535060008051602061400583398151915260048460f01660ff16901c60048660011660ff16901b1760ff1660208110612ee457634e487b7160e01b600052603260045260246000fd5b1a60f81b8988612ef381613ee5565b995081518110612f1357634e487b7160e01b600052603260045260246000fd5b60200101906001600160f81b031916908160001a90535085612f36896002613e05565b10612f45575050505050613192565b60008051602061400583398151915260078360ff16901c600185600f1660ff16901b1760ff1660208110612f8957634e487b7160e01b600052603260045260246000fd5b1a60f81b8988612f9881613ee5565b995081518110612fb857634e487b7160e01b600052603260045260246000fd5b60200101906001600160f81b031916908160001a90535085612fdb896003613e05565b10612fea575050505050613192565b600080516020614005833981519152601f600284901c166020811061301f57634e487b7160e01b600052603260045260246000fd5b1a60f81b898861302e81613ee5565b99508151811061304e57634e487b7160e01b600052603260045260246000fd5b60200101906001600160f81b031916908160001a9053506000805160206140058339815191526018600384901b166007600584901c1617602081106130a357634e487b7160e01b600052603260045260246000fd5b1a60f81b89886130b281613ee5565b9950815181106130d257634e487b7160e01b600052603260045260246000fd5b60200101906001600160f81b031916908160001a905350856130f5896004613e05565b10613104575050505050613192565b600080516020614005833981519152601f82166020811061313557634e487b7160e01b600052603260045260246000fd5b1a60f81b898861314481613ee5565b99508151811061316457634e487b7160e01b600052603260045260246000fd5b60200101906001600160f81b031916908160001a905350613186600589613e05565b97505050505050612b98565b50919695505050505050565b60006001600160e01b03198216637965db0b60e01b14806107f657506301ffc9a760e01b6001600160e01b03198316146107f6565b6131de838383613393565b600c5460ff1615610a7c5760405162461bcd60e51b815260206004820152602b60248201527f4552433732315061757361626c653a20746f6b656e207472616e73666572207760448201526a1a1a5b19481c185d5cd95960aa1b6064820152608401610906565b6001600160a01b03821661329b5760405162461bcd60e51b815260206004820181905260248201527f4552433732313a206d696e7420746f20746865207a65726f20616464726573736044820152606401610906565b6000818152600460205260409020546001600160a01b0316156133005760405162461bcd60e51b815260206004820152601c60248201527f4552433732313a20746f6b656e20616c7265616479206d696e746564000000006044820152606401610906565b61330c60008383612859565b6001600160a01b0382166000908152600560205260408120805460019290613335908490613e05565b909155505060008181526004602052604080822080546001600160a01b0319166001600160a01b03861690811790915590518392907fddf252ad1be2c89b69c2b068fc378daa952ba7f163c4a11628f55a4df523b3ef908290a45050565b6001600160a01b0383166133ee576133e981600a80546000838152600b60205260408120829055600182018355919091527fc65a7bb8d6351c1cf70c95a316cc6a92839c986682d98bc35f958f4883f9d2a80155565b613411565b816001600160a01b0316836001600160a01b031614613411576134118382613450565b6001600160a01b03821661342d57613428816134ed565b610a7c565b826001600160a01b0316826001600160a01b031614610a7c57610a7c82826135c6565b6000600161345d84611274565b6134679190613e50565b6000838152600960205260409020549091508082146134ba576001600160a01b03841660009081526008602090815260408083208584528252808320548484528184208190558352600990915290208190555b5060009182526009602090815260408084208490556001600160a01b039094168352600881528383209183525290812055565b600a546000906134ff90600190613e50565b6000838152600b6020526040812054600a805493945090928490811061353557634e487b7160e01b600052603260045260246000fd5b9060005260206000200154905080600a838154811061356457634e487b7160e01b600052603260045260246000fd5b6000918252602080832090910192909255828152600b9091526040808220849055858252812055600a8054806135aa57634e487b7160e01b600052603160045260246000fd5b6001900381819060005260206000200160009055905550505050565b60006135d183611274565b6001600160a01b039093166000908152600860209081526040808320868452825280832085905593825260099052919091209190915550565b82805461361690613eaa565b90600052602060002090601f016020900481019282613638576000855561367e565b82601f1061365157805160ff191683800117855561367e565b8280016001018555821561367e579182015b8281111561367e578251825591602001919060010190613663565b5061368a9291506136c6565b5090565b50805461369a90613eaa565b6000825580601f106136ac5750611056565b601f01602090049060005260206000209081019061105691905b5b8082111561368a57600081556001016136c7565b600067ffffffffffffffff808411156136f6576136f6613f40565b604051601f8501601f19908116603f0116810190828211818310171561371e5761371e613f40565b8160405280935085815286868601111561373757600080fd5b858560208301376000602087830101525050509392505050565b600082601f830112613761578081fd5b611ac7838335602085016136db565b803560ff811681146107f957600080fd5b600060208284031215613792578081fd5b8135611ac781613f56565b600080604083850312156137af578081fd5b82356137ba81613f56565b915060208301356137ca81613f56565b809150509250929050565b6000806000606084860312156137e9578081fd5b83356137f481613f56565b9250602084013561380481613f56565b929592945050506040919091013590565b6000806000806080858703121561382a578081fd5b843561383581613f56565b9350602085013561384581613f56565b925060408501359150606085013567ffffffffffffffff811115613867578182fd5b61387387828801613751565b91505092959194509250565b60008060408385031215613891578182fd5b823561389c81613f56565b9150602083013580151581146137ca578182fd5b600080600080600060a086880312156138c7578081fd5b85356138d281613f56565b9450602086013567ffffffffffffffff8111156138ed578182fd5b6138f988828901613751565b945050604086013592506060860135915061391660808701613770565b90509295509295909350565b60008060408385031215613934578182fd5b823561393f81613f56565b946020939093013593505050565b600080600060608486031215613961578283fd5b833561396c81613f56565b925060208401359150604084013567ffffffffffffffff81111561398e578182fd5b61399a86828701613751565b9150509250925092565b60008060008060008060c087890312156139bc578081fd5b86356139c781613f56565b955060208701359450604087013567ffffffffffffffff8111156139e9578182fd5b6139f589828a01613751565b945050613a0460608801613770565b92506080870135915060a087013590509295509295509295565b600060208284031215613a2f578081fd5b5035919050565b60008060408385031215613a48578182fd5b8235915060208301356137ca81613f56565b600060208284031215613a6b578081fd5b8135611ac781613f6b565b600060208284031215613a87578081fd5b8151611ac781613f6b565b600060208284031215613aa3578081fd5b813567ffffffffffffffff811115613ab9578182fd5b61209184828501613751565b600060208284031215613ad6578081fd5b8151611ac781613f56565b600060208284031215613af2578081fd5b813567ffffffffffffffff811115613b08578182fd5b8201601f81018413613b18578182fd5b612091848235602084016136db565b60008060408385031215613b39578182fd5b82359150602083013567ffffffffffffffff811115613b56578182fd5b613b6285828601613751565b9150509250929050565b60008151808452613b84816020860160208601613e67565b601f01601f19169290920160200192915050565b8054600090600181811c9080831680613bb257607f831692505b6020808410821415613bd257634e487b7160e01b86526022600452602486fd5b818015613be65760018114613bf757613c24565b60ff19861689528489019650613c24565b60008881526020902060005b86811015613c1c5781548b820152908501908301613c03565b505084890196505b50505050505092915050565b60008251613c42818460208701613e67565b9190910192915050565b60008351613c5e818460208801613e67565b60609390931b6bffffffffffffffffffffffff19169190920190815260140192915050565b6000613c8f8285613b98565b8351613c9f818360208801613e67565b01949350505050565b6000613cb48285613b98565b8351613cc4818360208801613e67565b64173539b7b760d91b9101908152600501949350505050565b6001600160a01b03848116825283166020820152606060408201819052600090613d0990830184613b6c565b95945050505050565b6001600160a01b0385811682528416602082015260408101839052608060608201819052600090613d4590830184613b6c565b9695505050505050565b600060208252611ac76020830184613b6c565b60208082526032908201527f4552433732313a207472616e7366657220746f206e6f6e20455243373231526560408201527131b2b4bb32b91034b6b83632b6b2b73a32b960711b606082015260800190565b60208082526031908201527f4552433732313a207472616e736665722063616c6c6572206973206e6f74206f6040820152701ddb995c881b9bdc88185c1c1c9bdd9959607a1b606082015260800190565b60008219821115613e1857613e18613f14565b500190565b600082613e2c57613e2c613f2a565b500490565b6000816000190483118215151615613e4b57613e4b613f14565b500290565b600082821015613e6257613e62613f14565b500390565b60005b83811015613e82578181015183820152602001613e6a565b838111156114eb5750506000910152565b600081613ea257613ea2613f14565b506000190190565b600181811c90821680613ebe57607f821691505b60208210811415613edf57634e487b7160e01b600052602260045260246000fd5b50919050565b6000600019821415613ef957613ef9613f14565b5060010190565b600082613f0f57613f0f613f2a565b500690565b634e487b7160e01b600052601160045260246000fd5b634e487b7160e01b600052601260045260246000fd5b634e487b7160e01b600052604160045260246000fd5b6001600160a01b038116811461105657600080fd5b6001600160e01b03198116811461105657600080fdfe4d6574615472616e73616374696f6e2875696e74323536206e6f6e63652c616464726573732066726f6d2c62797465732066756e6374696f6e5369676e6174757265294769744e46543a206d75737420686176652061646d696e20726f6c6520746f209f2df0fed2c77648de5860a4cc508cd0818c85b8b8a1ab4ceeef8d981c8956a66162636465666768696a6b6c6d6e6f707172737475767778797a323334353637a26469706673582212207ce558caa34dfd562c42802480d9d7ca0ee1ea4728c6c0be0ed1e03d21e8b78c64736f6c63430008030033",
  "immutableReferences": {
    "4016": [
      {
        "length": 32,
        "start": 10128
      }
    ],
    "4018": [
      {
        "length": 32,
        "start": 10087
      }
    ],
    "4020": [
      {
        "length": 32,
        "start": 10212
      }
    ],
    "4022": [
      {
        "length": 32,
        "start": 10249
      }
    ],
    "4024": [
      {
        "length": 32,
        "start": 10170
      }
    ]
  },
  "compiler": {
    "name": "solc",
    "version": "0.8.3+commit.8d00100c.Emscripten.clang"
  },
  "schemaVersion": "3.3.4",
  "updatedAt": "2021-03-31T01:43:14.142Z",
  "networkType": "ethereum",
  "devdoc": {
    "author": "Joshua Peek",
    "kind": "dev",
    "methods": {
      "approve(address,uint256)": {
        "details": "See {IERC721-approve}."
      },
      "balanceOf(address)": {
        "details": "See {IERC721-balanceOf}."
      },
      "burn(uint256)": {
        "details": "Burns `tokenId`. See {ERC721-_burn}. Requirements: - The caller must own `tokenId` or be an approved operator."
      },
      "contractURI()": {
        "details": "Get OpenSea contract level metadata. <https://docs.opensea.io/docs/contract-level-metadata>",
        "returns": {
          "_0": "a URL for the storefront-level metadata."
        }
      },
      "executeMetaTransaction(address,bytes,bytes32,bytes32,uint8)": {
        "details": "Execute signed transaction.",
        "params": {
          "functionSignature": "the RLP encoded transaction data.",
          "sigR": "signature r value.",
          "sigS": "signature s value.",
          "sigV": "signature v value.",
          "userAddress": "the original message sender address."
        }
      },
      "exists(uint256)": {
        "details": "Check if commit has been minted.",
        "params": {
          "tokenId": "The commit SHA1 bytes represented as uint."
        },
        "returns": {
          "_0": "true if commit has been minted."
        }
      },
      "getApproved(uint256)": {
        "details": "See {IERC721-getApproved}."
      },
      "getNonce(address)": {
        "details": "Get nonce for meta-transaction sender.",
        "params": {
          "user": "sender address."
        },
        "returns": {
          "_0": "meta-transaction nonce."
        }
      },
      "getRoleAdmin(bytes32)": {
        "details": "Returns the admin role that controls `role`. See {grantRole} and {revokeRole}. To change a role's admin, use {_setRoleAdmin}."
      },
      "grantRole(bytes32,address)": {
        "details": "Grants `role` to `account`. If `account` had not been already granted `role`, emits a {RoleGranted} event. Requirements: - the caller must have ``role``'s admin role."
      },
      "hasRole(bytes32,address)": {
        "details": "Returns `true` if `account` has been granted `role`."
      },
      "implode()": {
        "details": "Wipe out rinkeby test contract when redeploying. TODO: remove before deploying to mainnet."
      },
      "isApprovedForAll(address,address)": {
        "details": "Enable OpenSea gas-less listings by approving their proxy address."
      },
      "isTrustedForwarder(address)": {
        "details": "Ourself is the only trusted forwarder for meta transaction dispatch."
      },
      "mint(address,uint256,bytes)": {
        "details": "Mint a new token for a git commit.",
        "params": {
          "to": "The address of the new token's owner.",
          "tokenCID": "Optional IPFS metadata CIDv1 as bytes.",
          "tokenId": "The commit SHA1 bytes represented as uint."
        }
      },
      "mint(address,uint256,bytes,uint8,bytes32,bytes32)": {
        "details": "Mint a new token for a git commit.",
        "params": {
          "r": "signature r value.",
          "s": "signature s value.",
          "to": "The address of the new token's owner.",
          "tokenCID": "Optional IPFS metadata CIDv1 as bytes.",
          "tokenId": "The commit SHA1 bytes represented as uint.",
          "v": "signature v value."
        }
      },
      "name()": {
        "details": "See {IERC721Metadata-name}."
      },
      "owner()": {
        "details": "Returns the address of the current owner."
      },
      "ownerOf(uint256)": {
        "details": "See {IERC721-ownerOf}."
      },
      "pause()": {
        "details": "Pause token minting and transfers."
      },
      "paused()": {
        "details": "Returns true if the contract is paused, and false otherwise."
      },
      "renounceOwnership()": {
        "details": "Leaves the contract without owner. It will not be possible to call `onlyOwner` functions anymore. Can only be called by the current owner. NOTE: Renouncing ownership will leave the contract without an owner, thereby removing any functionality that is only available to the owner."
      },
      "renounceRole(bytes32,address)": {
        "details": "Revokes `role` from the calling account. Roles are often managed via {grantRole} and {revokeRole}: this function's purpose is to provide a mechanism for accounts to lose their privileges if they are compromised (such as when a trusted device is misplaced). If the calling account had been granted `role`, emits a {RoleRevoked} event. Requirements: - the caller must be `account`."
      },
      "revokeRole(bytes32,address)": {
        "details": "Revokes `role` from `account`. If `account` had been granted `role`, emits a {RoleRevoked} event. Requirements: - the caller must have ``role``'s admin role."
      },
      "safeTransferFrom(address,address,uint256)": {
        "details": "See {IERC721-safeTransferFrom}."
      },
      "safeTransferFrom(address,address,uint256,bytes)": {
        "details": "See {IERC721-safeTransferFrom}."
      },
      "setApprovalForAll(address,bool)": {
        "details": "See {IERC721-setApprovalForAll}."
      },
      "setBaseURI(string)": {
        "details": "Update metadata fallback base URI."
      },
      "setContractCID(bytes)": {
        "details": "Update OpenSea contract level metadata."
      },
      "setIPFSBaseURI(string)": {
        "details": "Update IPFS gateway URI."
      },
      "setProxyRegistry(address)": {
        "details": "Update OpenSea proxy address."
      },
      "setTokenCID(uint256,bytes)": {
        "details": "Set IPFS metdata for a token. Overrides fallback.",
        "params": {
          "tokenCID": "Optional IPFS metadata CIDv1 as bytes.",
          "tokenId": "The commit SHA1 bytes represented as uint."
        }
      },
      "symbol()": {
        "details": "See {IERC721Metadata-symbol}."
      },
      "tokenByIndex(uint256)": {
        "details": "See {IERC721Enumerable-tokenByIndex}."
      },
      "tokenOfOwnerByIndex(address,uint256)": {
        "details": "See {IERC721Enumerable-tokenOfOwnerByIndex}."
      },
      "tokenURI(uint256)": {
        "details": "Get token metadata.",
        "returns": {
          "_0": "a URL for JSON metadata."
        }
      },
      "totalSupply()": {
        "details": "See {IERC721Enumerable-totalSupply}."
      },
      "transferFrom(address,address,uint256)": {
        "details": "See {IERC721-transferFrom}."
      },
      "transferOwnership(address)": {
        "details": "Transfers ownership of the contract to a new account (`newOwner`). Can only be called by the current owner."
      },
      "unpause()": {
        "details": "Unpause token minting and transfers."
      }
    },
    "title": "An ERC721 non-fungible token for Git SHA1 commits.",
    "version": 1
  },
  "userdoc": {
    "kind": "user",
    "methods": {},
    "version": 1
  }
}